{
  "contractName": "Incidence",
  "abi": [
    {
      "constant": true,
      "inputs": [
        {
          "name": "",
          "type": "address"
        }
      ],
      "name": "participants",
      "outputs": [
        {
          "name": "participated",
          "type": "bool"
        },
        {
          "name": "isPatient",
          "type": "bool"
        }
      ],
      "payable": false,
      "stateMutability": "view",
      "type": "function",
      "signature": "0x09e69ede"
    },
    {
      "constant": true,
      "inputs": [],
      "name": "disease",
      "outputs": [
        {
          "name": "name",
          "type": "uint256"
        },
        {
          "name": "allParticipantNum",
          "type": "uint256"
        },
        {
          "name": "patientNum",
          "type": "uint256"
        },
        {
          "name": "incidence",
          "type": "uint256"
        }
      ],
      "payable": false,
      "stateMutability": "view",
      "type": "function",
      "signature": "0x7c014f80"
    },
    {
      "constant": true,
      "inputs": [],
      "name": "publisher",
      "outputs": [
        {
          "name": "",
          "type": "address"
        }
      ],
      "payable": false,
      "stateMutability": "view",
      "type": "function",
      "signature": "0x8c72c54e"
    },
    {
      "inputs": [],
      "payable": false,
      "stateMutability": "nonpayable",
      "type": "constructor",
      "signature": "constructor"
    },
    {
      "constant": false,
      "inputs": [
        {
          "name": "isPatient",
          "type": "bool"
        }
      ],
      "name": "participate",
      "outputs": [],
      "payable": false,
      "stateMutability": "nonpayable",
      "type": "function",
      "signature": "0x0f147c37"
    },
    {
      "constant": true,
      "inputs": [],
      "name": "getIncidence",
      "outputs": [
        {
          "name": "incidenceOfDisease",
          "type": "uint256"
        }
      ],
      "payable": false,
      "stateMutability": "view",
      "type": "function",
      "signature": "0xf2c31b53"
    },
    {
      "constant": true,
      "inputs": [],
      "name": "getName",
      "outputs": [
        {
          "name": "diseaseName",
          "type": "uint256"
        }
      ],
      "payable": false,
      "stateMutability": "view",
      "type": "function",
      "signature": "0x17d7de7c"
    },
    {
      "constant": true,
      "inputs": [],
      "name": "getallNum",
      "outputs": [
        {
          "name": "allNum",
          "type": "uint256"
        }
      ],
      "payable": false,
      "stateMutability": "view",
      "type": "function",
      "signature": "0x3f813ce8"
    },
    {
      "constant": true,
      "inputs": [],
      "name": "getpatientsNum",
      "outputs": [
        {
          "name": "patientsNum",
          "type": "uint256"
        }
      ],
      "payable": false,
      "stateMutability": "view",
      "type": "function",
      "signature": "0x71d2c2ac"
    }
  ],
  "bytecode": "0x608060405234801561001057600080fd5b50336000806101000a81548173ffffffffffffffffffffffffffffffffffffffff021916908373ffffffffffffffffffffffffffffffffffffffff16021790555060006002600101819055506000600280018190555060006002600301819055506103096002600001819055506104798061008c6000396000f3fe60806040526004361061008e576000357c0100000000000000000000000000000000000000000000000000000000900463ffffffff16806309e69ede146100935780630f147c371461010757806317d7de7c146101445780633f813ce81461016f57806371d2c2ac1461019a5780637c014f80146101c55780638c72c54e14610205578063f2c31b531461025c575b600080fd5b34801561009f57600080fd5b506100e2600480360360208110156100b657600080fd5b81019080803573ffffffffffffffffffffffffffffffffffffffff169060200190929190505050610287565b6040518083151515158152602001821515151581526020019250505060405180910390f35b34801561011357600080fd5b506101426004803603602081101561012a57600080fd5b810190808035151590602001909291905050506102c5565b005b34801561015057600080fd5b506101596103d7565b6040518082815260200191505060405180910390f35b34801561017b57600080fd5b506101846103e4565b6040518082815260200191505060405180910390f35b3480156101a657600080fd5b506101af6103f1565b6040518082815260200191505060405180910390f35b3480156101d157600080fd5b506101da6103fd565b6040518085815260200184815260200183815260200182815260200194505050505060405180910390f35b34801561021157600080fd5b5061021a61041b565b604051808273ffffffffffffffffffffffffffffffffffffffff1673ffffffffffffffffffffffffffffffffffffffff16815260200191505060405180910390f35b34801561026857600080fd5b50610271610440565b6040518082815260200191505060405180910390f35b60016020528060005260406000206000915090508060000160009054906101000a900460ff16908060000160019054906101000a900460ff16905082565b6000600160003373ffffffffffffffffffffffffffffffffffffffff1673ffffffffffffffffffffffffffffffffffffffff16815260200190815260200160002090508060000160009054906101000a900460ff161561032557506103d4565b60018160000160006101000a81548160ff021916908315150217905550811561037e5760018160000160016101000a81548160ff021916908315150217905550600280016000815480929190600101919050555061039c565b60008160000160016101000a81548160ff0219169083151502179055505b60026001016000815480929190600101919050555060026001015460646002800154028115156103c857fe5b04600260030181905550505b50565b6000600260000154905090565b6000600260010154905090565b60006002800154905090565b60028060000154908060010154908060020154908060030154905084565b6000809054906101000a900473ffffffffffffffffffffffffffffffffffffffff1681565b600060026003015490509056fea165627a7a723058209f834aa682926dee4503d3d543e25af32249c4533a2dfad5780c6be7c480bf470029",
  "source": "pragma solidity ^0.5.0;\r\ncontract Incidence {\r\n\t//声明一个参与者\r\n\tstruct Participant{\r\n\t\tbool participated;\r\n\t\tbool isPatient;\r\n\t}\r\n\r\n\t//疾病类型\r\n\tstruct Disease {\r\n\t\tuint name;\r\n\t\tuint allParticipantNum;\r\n\t\tuint patientNum;\r\n\t\tuint incidence;\r\n\t}\r\n\r\n\taddress public publisher;\r\n\tmapping(address => Participant) public participants;\r\n\tDisease public disease;\r\n\r\n\tconstructor() public {\r\n\t\tpublisher = msg.sender;\r\n\t\tdisease.allParticipantNum = 0;\r\n\t\tdisease.patientNum = 0;\r\n\t\tdisease.incidence = 0;\r\n\t\tdisease.name = 777;\r\n\t}\r\n\t\r\n\tfunction participate(bool isPatient) public {\r\n\t\tParticipant storage sender = participants[msg.sender];\r\n\t\tif (sender.participated) return;\r\n\t\tsender.participated = true;\r\n\r\n\t\tif (isPatient){\r\n\t\t\tsender.isPatient = true;\r\n\t\t\tdisease.patientNum ++;\r\n\t\t}else{\r\n\t\t\tsender.isPatient = false;\r\n\t\t}\r\n\t\r\n\t\tdisease.allParticipantNum ++;\r\n\t\tdisease.incidence = disease.patientNum * 100 / disease.allParticipantNum;\r\n\t}\r\n\r\n\tfunction getIncidence() public view returns (uint incidenceOfDisease) {\r\n\t\tincidenceOfDisease = disease.incidence;\r\n\t}\r\n\r\n\tfunction getName() public view returns (uint diseaseName) {\r\n\t\tdiseaseName = disease.name;\r\n\t}\r\n\r\n\tfunction getallNum() public view returns (uint allNum) {\r\n\t\tallNum = disease.allParticipantNum;\r\n\t}\r\n\r\n\tfunction getpatientsNum() public view returns (uint patientsNum) {\r\n\t\tpatientsNum = disease.patientNum;\r\n\t}\r\n}",
  "sourcePath": "D:/Program Files/dapp/project/contracts/Incidence.sol",
  "compiler": {
    "name": "solc",
    "version": "0.5.0+commit.1d4f565a.Emscripten.clang"
  },
  "schemaVersion": "3.0.0",
  "updatedAt": "2018-12-31T09:15:29.527Z",
  "devdoc": {
    "methods": {}
  },
  "userdoc": {
    "methods": {}
  }
}